{
  "_format": "hh-sol-artifact-1",
  "contractName": "LibPart",
  "sourceName": "contracts/LibPart.sol",
  "abi": [
    {
      "inputs": [],
      "name": "TYPE_HASH",
      "outputs": [
        {
          "internalType": "bytes32",
          "name": "",
          "type": "bytes32"
        }
      ],
      "stateMutability": "view",
      "type": "function"
    }
  ],
  "bytecode": "0x60dc610052600b82828239805160001a607314610045577f4e487b7100000000000000000000000000000000000000000000000000000000600052600060045260246000fd5b30600052607381538281f3fe730000000000000000000000000000000000000000301460806040526004361060335760003560e01c806364d4c819146038575b600080fd5b603e6052565b60405160499190608d565b60405180910390f35b7f397e04204c1e1a60ee8724b71f8244e10ab5f2e9009854d80f602bda21b59ebb81565b6000819050919050565b6087816076565b82525050565b600060208201905060a060008301846080565b9291505056fea2646970667358221220cf00483c88e127a1dc54841e37e7f8ebb71c5c2f577fff8cbeced95f053a09ce64736f6c634300080c0033",
  "linkReferences": {},
  "deployedLinkReferences": {}
}