{
  "_format": "hh-sol-artifact-1",
  "contractName": "yourNFT",
  "sourceName": "contracts/ERC721Mint.sol",
  "abi": [
    {
      "inputs": [
        {
          "internalType": "string",
          "name": "_name",
          "type": "string"
        },
        {
          "internalType": "string",
          "name": "_symbol",
          "type": "string"
        },
        {
          "internalType": "uint256",
          "name": "_minimuPrice",
          "type": "uint256"
        },
        {
          "internalType": "uint256",
          "name": "royalityFee",
          "type": "uint256"
        },
        {
          "internalType": "string",
          "name": "_initBaseURI",
          "type": "string"
        },
        {
          "internalType": "address[]",
          "name": "_artists",
          "type": "address[]"
        }
      ],
      "stateMutability": "nonpayable",
      "type": "constructor"
    },
    {
      "inputs": [],
      "name": "ApprovalCallerNotOwnerNorApproved",
      "type": "error"
    },
    {
      "inputs": [],
      "name": "ApprovalQueryForNonexistentToken",
      "type": "error"
    },
    {
      "inputs": [],
      "name": "ApproveToCaller",
      "type": "error"
    },
    {
      "inputs": [],
      "name": "BalanceQueryForZeroAddress",
      "type": "error"
    },
    {
      "inputs": [],
      "name": "MintERC2309QuantityExceedsLimit",
      "type": "error"
    },
    {
      "inputs": [],
      "name": "MintToZeroAddress",
      "type": "error"
    },
    {
      "inputs": [],
      "name": "MintZeroQuantity",
      "type": "error"
    },
    {
      "inputs": [],
      "name": "OwnerQueryForNonexistentToken",
      "type": "error"
    },
    {
      "inputs": [],
      "name": "OwnershipNotInitializedForExtraData",
      "type": "error"
    },
    {
      "inputs": [],
      "name": "TransferCallerNotOwnerNorApproved",
      "type": "error"
    },
    {
      "inputs": [],
      "name": "TransferFromIncorrectOwner",
      "type": "error"
    },
    {
      "inputs": [],
      "name": "TransferToNonERC721ReceiverImplementer",
      "type": "error"
    },
    {
      "inputs": [],
      "name": "TransferToZeroAddress",
      "type": "error"
    },
    {
      "inputs": [],
      "name": "URIQueryForNonexistentToken",
      "type": "error"
    },
    {
      "anonymous": false,
      "inputs": [
        {
          "indexed": true,
          "internalType": "address",
          "name": "owner",
          "type": "address"
        },
        {
          "indexed": true,
          "internalType": "address",
          "name": "approved",
          "type": "address"
        },
        {
          "indexed": true,
          "internalType": "uint256",
          "name": "tokenId",
          "type": "uint256"
        }
      ],
      "name": "Approval",
      "type": "event"
    },
    {
      "anonymous": false,
      "inputs": [
        {
          "indexed": true,
          "internalType": "address",
          "name": "owner",
          "type": "address"
        },
        {
          "indexed": true,
          "internalType": "address",
          "name": "operator",
          "type": "address"
        },
        {
          "indexed": false,
          "internalType": "bool",
          "name": "approved",
          "type": "bool"
        }
      ],
      "name": "ApprovalForAll",
      "type": "event"
    },
    {
      "anonymous": false,
      "inputs": [
        {
          "indexed": true,
          "internalType": "uint256",
          "name": "fromTokenId",
          "type": "uint256"
        },
        {
          "indexed": false,
          "internalType": "uint256",
          "name": "toTokenId",
          "type": "uint256"
        },
        {
          "indexed": true,
          "internalType": "address",
          "name": "from",
          "type": "address"
        },
        {
          "indexed": true,
          "internalType": "address",
          "name": "to",
          "type": "address"
        }
      ],
      "name": "ConsecutiveTransfer",
      "type": "event"
    },
    {
      "anonymous": false,
      "inputs": [
        {
          "indexed": true,
          "internalType": "address",
          "name": "previousOwner",
          "type": "address"
        },
        {
          "indexed": true,
          "internalType": "address",
          "name": "newOwner",
          "type": "address"
        }
      ],
      "name": "OwnershipTransferred",
      "type": "event"
    },
    {
      "anonymous": false,
      "inputs": [
        {
          "indexed": false,
          "internalType": "uint256",
          "name": "tokenId",
          "type": "uint256"
        },
        {
          "components": [
            {
              "internalType": "address payable",
              "name": "account",
              "type": "address"
            },
            {
              "internalType": "uint96",
              "name": "value",
              "type": "uint96"
            }
          ],
          "indexed": false,
          "internalType": "struct LibPart.Part[]",
          "name": "royalties",
          "type": "tuple[]"
        }
      ],
      "name": "RoyaltiesSet",
      "type": "event"
    },
    {
      "anonymous": false,
      "inputs": [
        {
          "indexed": false,
          "internalType": "address",
          "name": "from",
          "type": "address"
        },
        {
          "indexed": false,
          "internalType": "address",
          "name": "to",
          "type": "address"
        },
        {
          "indexed": false,
          "internalType": "uint256",
          "name": "value",
          "type": "uint256"
        }
      ],
      "name": "Sale",
      "type": "event"
    },
    {
      "anonymous": false,
      "inputs": [
        {
          "indexed": true,
          "internalType": "address",
          "name": "from",
          "type": "address"
        },
        {
          "indexed": true,
          "internalType": "address",
          "name": "to",
          "type": "address"
        },
        {
          "indexed": true,
          "internalType": "uint256",
          "name": "tokenId",
          "type": "uint256"
        }
      ],
      "name": "Transfer",
      "type": "event"
    },
    {
      "inputs": [
        {
          "internalType": "address",
          "name": "from",
          "type": "address"
        },
        {
          "internalType": "address",
          "name": "to",
          "type": "address"
        }
      ],
      "name": "_payTxfree",
      "outputs": [],
      "stateMutability": "payable",
      "type": "function"
    },
    {
      "inputs": [],
      "name": "_royalityFee",
      "outputs": [
        {
          "internalType": "uint256",
          "name": "",
          "type": "uint256"
        }
      ],
      "stateMutability": "view",
      "type": "function"
    },
    {
      "inputs": [
        {
          "internalType": "address",
          "name": "to",
          "type": "address"
        },
        {
          "internalType": "uint256",
          "name": "tokenId",
          "type": "uint256"
        }
      ],
      "name": "approve",
      "outputs": [],
      "stateMutability": "nonpayable",
      "type": "function"
    },
    {
      "inputs": [
        {
          "internalType": "uint256",
          "name": "",
          "type": "uint256"
        }
      ],
      "name": "artists",
      "outputs": [
        {
          "internalType": "address",
          "name": "",
          "type": "address"
        }
      ],
      "stateMutability": "view",
      "type": "function"
    },
    {
      "inputs": [
        {
          "internalType": "address",
          "name": "owner",
          "type": "address"
        }
      ],
      "name": "balanceOf",
      "outputs": [
        {
          "internalType": "uint256",
          "name": "",
          "type": "uint256"
        }
      ],
      "stateMutability": "view",
      "type": "function"
    },
    {
      "inputs": [],
      "name": "baseExtension",
      "outputs": [
        {
          "internalType": "string",
          "name": "",
          "type": "string"
        }
      ],
      "stateMutability": "view",
      "type": "function"
    },
    {
      "inputs": [],
      "name": "baseURI",
      "outputs": [
        {
          "internalType": "string",
          "name": "",
          "type": "string"
        }
      ],
      "stateMutability": "view",
      "type": "function"
    },
    {
      "inputs": [
        {
          "internalType": "uint256",
          "name": "tokenId",
          "type": "uint256"
        },
        {
          "internalType": "uint256",
          "name": "value",
          "type": "uint256"
        }
      ],
      "name": "checkTokenRoyaltics",
      "outputs": [
        {
          "internalType": "uint256",
          "name": "artistsValue",
          "type": "uint256"
        }
      ],
      "stateMutability": "pure",
      "type": "function"
    },
    {
      "inputs": [
        {
          "internalType": "uint256",
          "name": "tokenId",
          "type": "uint256"
        }
      ],
      "name": "getApproved",
      "outputs": [
        {
          "internalType": "address",
          "name": "",
          "type": "address"
        }
      ],
      "stateMutability": "view",
      "type": "function"
    },
    {
      "inputs": [
        {
          "internalType": "uint256",
          "name": "id",
          "type": "uint256"
        }
      ],
      "name": "getRaribleV2Royalties",
      "outputs": [
        {
          "components": [
            {
              "internalType": "address payable",
              "name": "account",
              "type": "address"
            },
            {
              "internalType": "uint96",
              "name": "value",
              "type": "uint96"
            }
          ],
          "internalType": "struct LibPart.Part[]",
          "name": "",
          "type": "tuple[]"
        }
      ],
      "stateMutability": "view",
      "type": "function"
    },
    {
      "inputs": [
        {
          "internalType": "address",
          "name": "owner",
          "type": "address"
        },
        {
          "internalType": "address",
          "name": "operator",
          "type": "address"
        }
      ],
      "name": "isApprovedForAll",
      "outputs": [
        {
          "internalType": "bool",
          "name": "",
          "type": "bool"
        }
      ],
      "stateMutability": "view",
      "type": "function"
    },
    {
      "inputs": [
        {
          "internalType": "address",
          "name": "sender",
          "type": "address"
        }
      ],
      "name": "isArtist",
      "outputs": [
        {
          "internalType": "bool",
          "name": "",
          "type": "bool"
        }
      ],
      "stateMutability": "view",
      "type": "function"
    },
    {
      "inputs": [],
      "name": "maxSupply",
      "outputs": [
        {
          "internalType": "uint256",
          "name": "",
          "type": "uint256"
        }
      ],
      "stateMutability": "view",
      "type": "function"
    },
    {
      "inputs": [],
      "name": "minimuPrice",
      "outputs": [
        {
          "internalType": "uint256",
          "name": "",
          "type": "uint256"
        }
      ],
      "stateMutability": "view",
      "type": "function"
    },
    {
      "inputs": [
        {
          "internalType": "address",
          "name": "from",
          "type": "address"
        },
        {
          "internalType": "uint256",
          "name": "amount",
          "type": "uint256"
        }
      ],
      "name": "mint",
      "outputs": [],
      "stateMutability": "nonpayable",
      "type": "function"
    },
    {
      "inputs": [],
      "name": "name",
      "outputs": [
        {
          "internalType": "string",
          "name": "",
          "type": "string"
        }
      ],
      "stateMutability": "view",
      "type": "function"
    },
    {
      "inputs": [],
      "name": "owner",
      "outputs": [
        {
          "internalType": "address",
          "name": "",
          "type": "address"
        }
      ],
      "stateMutability": "view",
      "type": "function"
    },
    {
      "inputs": [
        {
          "internalType": "uint256",
          "name": "tokenId",
          "type": "uint256"
        }
      ],
      "name": "ownerOf",
      "outputs": [
        {
          "internalType": "address",
          "name": "",
          "type": "address"
        }
      ],
      "stateMutability": "view",
      "type": "function"
    },
    {
      "inputs": [],
      "name": "renounceOwnership",
      "outputs": [],
      "stateMutability": "nonpayable",
      "type": "function"
    },
    {
      "inputs": [],
      "name": "revealed",
      "outputs": [
        {
          "internalType": "bool",
          "name": "",
          "type": "bool"
        }
      ],
      "stateMutability": "view",
      "type": "function"
    },
    {
      "inputs": [
        {
          "internalType": "uint256",
          "name": "id",
          "type": "uint256"
        },
        {
          "internalType": "uint256",
          "name": "_salePrice",
          "type": "uint256"
        }
      ],
      "name": "royaltyInfo",
      "outputs": [
        {
          "internalType": "address",
          "name": "receiver",
          "type": "address"
        },
        {
          "internalType": "uint256",
          "name": "royaltyAmount",
          "type": "uint256"
        }
      ],
      "stateMutability": "view",
      "type": "function"
    },
    {
      "inputs": [
        {
          "internalType": "address",
          "name": "from",
          "type": "address"
        },
        {
          "internalType": "address",
          "name": "to",
          "type": "address"
        },
        {
          "internalType": "uint256",
          "name": "tokenId",
          "type": "uint256"
        }
      ],
      "name": "safeTransferFrom",
      "outputs": [],
      "stateMutability": "nonpayable",
      "type": "function"
    },
    {
      "inputs": [
        {
          "internalType": "address",
          "name": "from",
          "type": "address"
        },
        {
          "internalType": "address",
          "name": "to",
          "type": "address"
        },
        {
          "internalType": "uint256",
          "name": "tokenId",
          "type": "uint256"
        },
        {
          "internalType": "bytes",
          "name": "_data",
          "type": "bytes"
        }
      ],
      "name": "safeTransferFrom",
      "outputs": [],
      "stateMutability": "nonpayable",
      "type": "function"
    },
    {
      "inputs": [],
      "name": "seeArtictsArray",
      "outputs": [
        {
          "internalType": "address[]",
          "name": "",
          "type": "address[]"
        }
      ],
      "stateMutability": "view",
      "type": "function"
    },
    {
      "inputs": [
        {
          "internalType": "address",
          "name": "operator",
          "type": "address"
        },
        {
          "internalType": "bool",
          "name": "approved",
          "type": "bool"
        }
      ],
      "name": "setApprovalForAll",
      "outputs": [],
      "stateMutability": "nonpayable",
      "type": "function"
    },
    {
      "inputs": [
        {
          "internalType": "uint256",
          "name": "_cost",
          "type": "uint256"
        }
      ],
      "name": "setCost",
      "outputs": [],
      "stateMutability": "nonpayable",
      "type": "function"
    },
    {
      "inputs": [
        {
          "internalType": "bool",
          "name": "_state",
          "type": "bool"
        }
      ],
      "name": "setRevealed",
      "outputs": [],
      "stateMutability": "nonpayable",
      "type": "function"
    },
    {
      "inputs": [
        {
          "internalType": "bytes4",
          "name": "interfaceId",
          "type": "bytes4"
        }
      ],
      "name": "supportsInterface",
      "outputs": [
        {
          "internalType": "bool",
          "name": "",
          "type": "bool"
        }
      ],
      "stateMutability": "view",
      "type": "function"
    },
    {
      "inputs": [],
      "name": "symbol",
      "outputs": [
        {
          "internalType": "string",
          "name": "",
          "type": "string"
        }
      ],
      "stateMutability": "view",
      "type": "function"
    },
    {
      "inputs": [
        {
          "internalType": "uint256",
          "name": "_tokenId",
          "type": "uint256"
        }
      ],
      "name": "tokenURI",
      "outputs": [
        {
          "internalType": "string",
          "name": "",
          "type": "string"
        }
      ],
      "stateMutability": "view",
      "type": "function"
    },
    {
      "inputs": [],
      "name": "totalSupply",
      "outputs": [
        {
          "internalType": "uint256",
          "name": "",
          "type": "uint256"
        }
      ],
      "stateMutability": "view",
      "type": "function"
    },
    {
      "inputs": [
        {
          "internalType": "address",
          "name": "from",
          "type": "address"
        },
        {
          "internalType": "address",
          "name": "to",
          "type": "address"
        },
        {
          "internalType": "uint256",
          "name": "tokenId",
          "type": "uint256"
        }
      ],
      "name": "transferFrom",
      "outputs": [],
      "stateMutability": "nonpayable",
      "type": "function"
    },
    {
      "inputs": [
        {
          "internalType": "address",
          "name": "newOwner",
          "type": "address"
        }
      ],
      "name": "transferOwnership",
      "outputs": [],
      "stateMutability": "nonpayable",
      "type": "function"
    },
    {
      "inputs": [],
      "name": "txFreeToken",
      "outputs": [
        {
          "internalType": "address",
          "name": "",
          "type": "address"
        }
      ],
      "stateMutability": "view",
      "type": "function"
    },
    {
      "inputs": [],
      "name": "withdrawMoney",
      "outputs": [],
      "stateMutability": "nonpayable",
      "type": "function"
    }
  ],
  "bytecode": "0x60806040526040518060400160405280600481526020017f2e706e6700000000000000000000000000000000000000000000000000000000815250601190805190602001906200005192919062000306565b506127106012556000601360006101000a81548160ff0219169083151502179055503480156200008057600080fd5b506040516200412d3803806200412d8339818101604052810190620000a691906200075d565b85858160029080519060200190620000c092919062000306565b508060039080519060200190620000d992919062000306565b50620000ea6200017060201b60201c565b600081905550505062000112620001066200017560201b60201c565b6200017d60201b60201c565b600160098190555081601090805190602001906200013292919062000306565b5082600e8190555080600c90805190602001906200015292919062000397565b5062000164846200024360201b60201c565b5050505050506200095d565b600090565b600033905090565b6000600860009054906101000a900473ffffffffffffffffffffffffffffffffffffffff16905081600860006101000a81548173ffffffffffffffffffffffffffffffffffffffff021916908373ffffffffffffffffffffffffffffffffffffffff1602179055508173ffffffffffffffffffffffffffffffffffffffff168173ffffffffffffffffffffffffffffffffffffffff167f8be0079c531659141344cd1fd0a4f28419497f9722a3daafe3b4186f6b6457e060405160405180910390a35050565b620002536200017560201b60201c565b73ffffffffffffffffffffffffffffffffffffffff1662000279620002dc60201b60201c565b73ffffffffffffffffffffffffffffffffffffffff1614620002d2576040517f08c379a0000000000000000000000000000000000000000000000000000000008152600401620002c990620008d6565b60405180910390fd5b80600f8190555050565b6000600860009054906101000a900473ffffffffffffffffffffffffffffffffffffffff16905090565b828054620003149062000927565b90600052602060002090601f01602090048101928262000338576000855562000384565b82601f106200035357805160ff191683800117855562000384565b8280016001018555821562000384579182015b828111156200038357825182559160200191906001019062000366565b5b50905062000393919062000426565b5090565b82805482825590600052602060002090810192821562000413579160200282015b82811115620004125782518260006101000a81548173ffffffffffffffffffffffffffffffffffffffff021916908373ffffffffffffffffffffffffffffffffffffffff16021790555091602001919060010190620003b8565b5b50905062000422919062000426565b5090565b5b808211156200044157600081600090555060010162000427565b5090565b6000604051905090565b600080fd5b600080fd5b600080fd5b600080fd5b6000601f19601f8301169050919050565b7f4e487b7100000000000000000000000000000000000000000000000000000000600052604160045260246000fd5b620004ae8262000463565b810181811067ffffffffffffffff82111715620004d057620004cf62000474565b5b80604052505050565b6000620004e562000445565b9050620004f38282620004a3565b919050565b600067ffffffffffffffff82111562000516576200051562000474565b5b620005218262000463565b9050602081019050919050565b60005b838110156200054e57808201518184015260208101905062000531565b838111156200055e576000848401525b50505050565b60006200057b6200057584620004f8565b620004d9565b9050828152602081018484840111156200059a57620005996200045e565b5b620005a78482856200052e565b509392505050565b600082601f830112620005c757620005c662000459565b5b8151620005d984826020860162000564565b91505092915050565b6000819050919050565b620005f781620005e2565b81146200060357600080fd5b50565b6000815190506200061781620005ec565b92915050565b600067ffffffffffffffff8211156200063b576200063a62000474565b5b602082029050602081019050919050565b600080fd5b600073ffffffffffffffffffffffffffffffffffffffff82169050919050565b60006200067e8262000651565b9050919050565b620006908162000671565b81146200069c57600080fd5b50565b600081519050620006b08162000685565b92915050565b6000620006cd620006c7846200061d565b620004d9565b90508083825260208201905060208402830185811115620006f357620006f26200064c565b5b835b818110156200072057806200070b88826200069f565b845260208401935050602081019050620006f5565b5050509392505050565b600082601f83011262000742576200074162000459565b5b815162000754848260208601620006b6565b91505092915050565b60008060008060008060c087890312156200077d576200077c6200044f565b5b600087015167ffffffffffffffff8111156200079e576200079d62000454565b5b620007ac89828a01620005af565b965050602087015167ffffffffffffffff811115620007d057620007cf62000454565b5b620007de89828a01620005af565b9550506040620007f189828a0162000606565b94505060606200080489828a0162000606565b935050608087015167ffffffffffffffff81111562000828576200082762000454565b5b6200083689828a01620005af565b92505060a087015167ffffffffffffffff8111156200085a576200085962000454565b5b6200086889828a016200072a565b9150509295509295509295565b600082825260208201905092915050565b7f4f776e61626c653a2063616c6c6572206973206e6f7420746865206f776e6572600082015250565b6000620008be60208362000875565b9150620008cb8262000886565b602082019050919050565b60006020820190508181036000830152620008f181620008af565b9050919050565b7f4e487b7100000000000000000000000000000000000000000000000000000000600052602260045260246000fd5b600060028204905060018216806200094057607f821691505b60208210811415620009575762000956620008f8565b5b50919050565b6137c0806200096d6000396000f3fe6080604052600436106102045760003560e01c8063715018a611610118578063c87b56dd116100a0578063d5abeb011161006f578063d5abeb0114610783578063e0a80853146107ae578063e985e9c5146107d7578063f2fde38b14610814578063fd6d78a81461083d57610204565b8063c87b56dd146106b0578063cad96cca146106ed578063cc3d93c51461072a578063cd7e10c11461074657610204565b8063a22cb465116100e7578063a22cb465146105f1578063ac4460021461061a578063aed177a614610631578063b88d4fde1461065c578063c66828621461068557610204565b8063715018a614610547578063886a2ae21461055e5780638da5cb5b1461059b57806395d89b41146105c657610204565b806342842e0e1161019b5780636352211e1161016a5780636352211e1461043a5780636b2f65b0146104775780636c0360eb146104b45780636fdb765f146104df57806370a082311461050a57610204565b806342842e0e1461039257806344a0d68a146103bb57806351830227146103e457806353e4bfc21461040f57610204565b806318160ddd116101d757806318160ddd146102d757806323b872dd146103025780632a55205a1461032b57806340c10f191461036957610204565b806301ffc9a71461020957806306fdde0314610246578063081812fc14610271578063095ea7b3146102ae575b600080fd5b34801561021557600080fd5b50610230600480360381019061022b91906127ed565b610868565b60405161023d9190612835565b60405180910390f35b34801561025257600080fd5b5061025b6108fa565b60405161026891906128e9565b60405180910390f35b34801561027d57600080fd5b5061029860048036038101906102939190612941565b61098c565b6040516102a591906129af565b60405180910390f35b3480156102ba57600080fd5b506102d560048036038101906102d091906129f6565b610a08565b005b3480156102e357600080fd5b506102ec610b49565b6040516102f99190612a45565b60405180910390f35b34801561030e57600080fd5b5061032960048036038101906103249190612a60565b610b60565b005b34801561033757600080fd5b50610352600480360381019061034d9190612ab3565b610e85565b604051610360929190612af3565b60405180910390f35b34801561037557600080fd5b50610390600480360381019061038b91906129f6565b611057565b005b34801561039e57600080fd5b506103b960048036038101906103b49190612a60565b6110a7565b005b3480156103c757600080fd5b506103e260048036038101906103dd9190612941565b6110d7565b005b3480156103f057600080fd5b506103f961115d565b6040516104069190612835565b60405180910390f35b34801561041b57600080fd5b50610424611170565b60405161043191906129af565b60405180910390f35b34801561044657600080fd5b50610461600480360381019061045c9190612941565b611196565b60405161046e91906129af565b60405180910390f35b34801561048357600080fd5b5061049e60048036038101906104999190612b1c565b6111a8565b6040516104ab9190612835565b60405180910390f35b3480156104c057600080fd5b506104c9611253565b6040516104d691906128e9565b60405180910390f35b3480156104eb57600080fd5b506104f46112e1565b6040516105019190612c07565b60405180910390f35b34801561051657600080fd5b50610531600480360381019061052c9190612b1c565b61136f565b60405161053e9190612a45565b60405180910390f35b34801561055357600080fd5b5061055c611428565b005b34801561056a57600080fd5b5061058560048036038101906105809190612ab3565b6114b0565b6040516105929190612a45565b60405180910390f35b3480156105a757600080fd5b506105b06114b8565b6040516105bd91906129af565b60405180910390f35b3480156105d257600080fd5b506105db6114e2565b6040516105e891906128e9565b60405180910390f35b3480156105fd57600080fd5b5061061860048036038101906106139190612c55565b611574565b005b34801561062657600080fd5b5061062f6116ec565b005b34801561063d57600080fd5b5061064661186d565b6040516106539190612a45565b60405180910390f35b34801561066857600080fd5b50610683600480360381019061067e9190612dca565b611873565b005b34801561069157600080fd5b5061069a6118e6565b6040516106a791906128e9565b60405180910390f35b3480156106bc57600080fd5b506106d760048036038101906106d29190612941565b611974565b6040516106e491906128e9565b60405180910390f35b3480156106f957600080fd5b50610714600480360381019061070f9190612941565b611a45565b6040516107219190612f73565b60405180910390f35b610744600480360381019061073f9190612f95565b611b47565b005b34801561075257600080fd5b5061076d60048036038101906107689190612941565b611c41565b60405161077a91906129af565b60405180910390f35b34801561078f57600080fd5b50610798611c80565b6040516107a59190612a45565b60405180910390f35b3480156107ba57600080fd5b506107d560048036038101906107d09190612fd5565b611c86565b005b3480156107e357600080fd5b506107fe60048036038101906107f99190612f95565b611d1f565b60405161080b9190612835565b60405180910390f35b34801561082057600080fd5b5061083b60048036038101906108369190612b1c565b611db3565b005b34801561084957600080fd5b50610852611eab565b60405161085f9190612a45565b60405180910390f35b60006301ffc9a760e01b827bffffffffffffffffffffffffffffffffffffffffffffffffffffffff191614806108c357506380ac58cd60e01b827bffffffffffffffffffffffffffffffffffffffffffffffffffffffff1916145b806108f35750635b5e139f60e01b827bffffffffffffffffffffffffffffffffffffffffffffffffffffffff1916145b9050919050565b60606002805461090990613031565b80601f016020809104026020016040519081016040528092919081815260200182805461093590613031565b80156109825780601f1061095757610100808354040283529160200191610982565b820191906000526020600020905b81548152906001019060200180831161096557829003601f168201915b5050505050905090565b600061099782611eb1565b6109cd576040517fcf4700e400000000000000000000000000000000000000000000000000000000815260040160405180910390fd5b6006600083815260200190815260200160002060009054906101000a900473ffffffffffffffffffffffffffffffffffffffff169050919050565b6000610a1382611196565b90508073ffffffffffffffffffffffffffffffffffffffff16610a34611f10565b73ffffffffffffffffffffffffffffffffffffffff1614610a9757610a6081610a5b611f10565b611d1f565b610a96576040517fcfb3b94200000000000000000000000000000000000000000000000000000000815260040160405180910390fd5b5b826006600084815260200190815260200160002060006101000a81548173ffffffffffffffffffffffffffffffffffffffff021916908373ffffffffffffffffffffffffffffffffffffffff160217905550818373ffffffffffffffffffffffffffffffffffffffff168273ffffffffffffffffffffffffffffffffffffffff167f8c5be1e5ebec7d5bd14f71427d1e84f3dd0314c0f7b2291e5b200ac8c7c3b92560405160405180910390a4505050565b6000610b53611f18565b6001546000540303905090565b6000610b6b82611f1d565b90508373ffffffffffffffffffffffffffffffffffffffff168173ffffffffffffffffffffffffffffffffffffffff1614610bd2576040517fa114810000000000000000000000000000000000000000000000000000000000815260040160405180910390fd5b600080610bde84611feb565b91509150610bf48187610bef611f10565b61200d565b610c4057610c0986610c04611f10565b611d1f565b610c3f576040517f59c896be00000000000000000000000000000000000000000000000000000000815260040160405180910390fd5b5b600073ffffffffffffffffffffffffffffffffffffffff168573ffffffffffffffffffffffffffffffffffffffff161415610ca7576040517fea553b3400000000000000000000000000000000000000000000000000000000815260040160405180910390fd5b610cb48686866001612051565b8015610cbf57600082555b600560008773ffffffffffffffffffffffffffffffffffffffff1673ffffffffffffffffffffffffffffffffffffffff168152602001908152602001600020600081546001900391905081905550600560008673ffffffffffffffffffffffffffffffffffffffff1673ffffffffffffffffffffffffffffffffffffffff1681526020019081526020016000206000815460010191905081905550610d8d85610d69888887612057565b7c02000000000000000000000000000000000000000000000000000000001761207f565b600460008681526020019081526020016000208190555060007c020000000000000000000000000000000000000000000000000000000084161415610e15576000600185019050600060046000838152602001908152602001600020541415610e13576000548114610e12578360046000838152602001908152602001600020819055505b5b505b838573ffffffffffffffffffffffffffffffffffffffff168773ffffffffffffffffffffffffffffffffffffffff167fddf252ad1be2c89b69c2b068fc378daa952ba7f163c4a11628f55a4df523b3ef60405160405180910390a4610e7d86868660016120aa565b505050505050565b6000806000600a6000868152602001908152602001600020805490501415610eb4576000915060009050611050565b6000600a6000868152602001908152602001600020805480602002602001604051908101604052809291908181526020016000905b82821015610fab578382906000526020600020016040518060400160405290816000820160009054906101000a900473ffffffffffffffffffffffffffffffffffffffff1673ffffffffffffffffffffffffffffffffffffffff1673ffffffffffffffffffffffffffffffffffffffff1681526020016000820160149054906101000a90046bffffffffffffffffffffffff166bffffffffffffffffffffffff166bffffffffffffffffffffffff168152505081526020019060010190610ee9565b50505050905080600081518110610fc557610fc4613063565b5b6020026020010151600001519250600080600090505b825181101561103157828181518110610ff757610ff6613063565b5b6020026020010151602001516bffffffffffffffffffffffff168261101c91906130c1565b9150808061102990613117565b915050610fdb565b5061271085826110419190613160565b61104b91906131e9565b925050505b9250929050565b6000611061610b49565b905060125481111561107257600080fd5b6000821161107f57600080fd5b611088336111a8565b6110a257600161109757600080fd5b6110a183836120b0565b5b505050565b600015156110b4846111a8565b151514156110c7576110c68383611b47565b5b6110d2838383610b60565b505050565b6110df6120ce565b73ffffffffffffffffffffffffffffffffffffffff166110fd6114b8565b73ffffffffffffffffffffffffffffffffffffffff1614611153576040517f08c379a000000000000000000000000000000000000000000000000000000000815260040161114a90613266565b60405180910390fd5b80600f8190555050565b601360009054906101000a900460ff1681565b600d60009054906101000a900473ffffffffffffffffffffffffffffffffffffffff1681565b60006111a182611f1d565b9050919050565b600080600090505b600c8054905081101561124c578273ffffffffffffffffffffffffffffffffffffffff16600c82815481106111e8576111e7613063565b5b9060005260206000200160009054906101000a900473ffffffffffffffffffffffffffffffffffffffff1673ffffffffffffffffffffffffffffffffffffffff16141561123957600191505061124e565b808061124490613117565b9150506111b0565b505b919050565b6010805461126090613031565b80601f016020809104026020016040519081016040528092919081815260200182805461128c90613031565b80156112d95780601f106112ae576101008083540402835291602001916112d9565b820191906000526020600020905b8154815290600101906020018083116112bc57829003601f168201915b505050505081565b6060600c80548060200260200160405190810160405280929190818152602001828054801561136557602002820191906000526020600020905b8160009054906101000a900473ffffffffffffffffffffffffffffffffffffffff1673ffffffffffffffffffffffffffffffffffffffff168152602001906001019080831161131b575b5050505050905090565b60008073ffffffffffffffffffffffffffffffffffffffff168273ffffffffffffffffffffffffffffffffffffffff1614156113d7576040517f8f4eb60400000000000000000000000000000000000000000000000000000000815260040160405180910390fd5b67ffffffffffffffff600560008473ffffffffffffffffffffffffffffffffffffffff1673ffffffffffffffffffffffffffffffffffffffff16815260200190815260200160002054169050919050565b6114306120ce565b73ffffffffffffffffffffffffffffffffffffffff1661144e6114b8565b73ffffffffffffffffffffffffffffffffffffffff16146114a4576040517f08c379a000000000000000000000000000000000000000000000000000000000815260040161149b90613266565b60405180910390fd5b6114ae60006120d6565b565b600092915050565b6000600860009054906101000a900473ffffffffffffffffffffffffffffffffffffffff16905090565b6060600380546114f190613031565b80601f016020809104026020016040519081016040528092919081815260200182805461151d90613031565b801561156a5780601f1061153f5761010080835404028352916020019161156a565b820191906000526020600020905b81548152906001019060200180831161154d57829003601f168201915b5050505050905090565b61157c611f10565b73ffffffffffffffffffffffffffffffffffffffff168273ffffffffffffffffffffffffffffffffffffffff1614156115e1576040517fb06307db00000000000000000000000000000000000000000000000000000000815260040160405180910390fd5b80600760006115ee611f10565b73ffffffffffffffffffffffffffffffffffffffff1673ffffffffffffffffffffffffffffffffffffffff16815260200190815260200160002060008473ffffffffffffffffffffffffffffffffffffffff1673ffffffffffffffffffffffffffffffffffffffff16815260200190815260200160002060006101000a81548160ff0219169083151502179055508173ffffffffffffffffffffffffffffffffffffffff1661169b611f10565b73ffffffffffffffffffffffffffffffffffffffff167f17307eab39ab6107e8899845ad3d59bd9653f200f220920489ca2b5937696c31836040516116e09190612835565b60405180910390a35050565b6116f46120ce565b73ffffffffffffffffffffffffffffffffffffffff166117126114b8565b73ffffffffffffffffffffffffffffffffffffffff1614611768576040517f08c379a000000000000000000000000000000000000000000000000000000000815260040161175f90613266565b60405180910390fd5b600260095414156117ae576040517f08c379a00000000000000000000000000000000000000000000000000000000081526004016117a5906132d2565b60405180910390fd5b600260098190555060003373ffffffffffffffffffffffffffffffffffffffff16476040516117dc90613323565b60006040518083038185875af1925050503d8060008114611819576040519150601f19603f3d011682016040523d82523d6000602084013e61181e565b606091505b5050905080611862576040517f08c379a000000000000000000000000000000000000000000000000000000000815260040161185990613384565b60405180910390fd5b506001600981905550565b600f5481565b61187e848484610b60565b60008373ffffffffffffffffffffffffffffffffffffffff163b146118e0576118a98484848461219c565b6118df576040517fd1a57ed600000000000000000000000000000000000000000000000000000000815260040160405180910390fd5b5b50505050565b601180546118f390613031565b80601f016020809104026020016040519081016040528092919081815260200182805461191f90613031565b801561196c5780601f106119415761010080835404028352916020019161196c565b820191906000526020600020905b81548152906001019060200180831161194f57829003601f168201915b505050505081565b606061197f82611eb1565b6119be576040517f08c379a00000000000000000000000000000000000000000000000000000000081526004016119b590613416565b60405180910390fd5b60006119c86122ed565b90506000815111611a0e576040518060400160405280601c81526020017f68747470733a2f2f6d7574746572636f72702e636f6d2f6572726f7200000000815250611a3d565b6010611a1984612304565b6011604051602001611a2d93929190613506565b6040516020818303038152906040525b915050919050565b6060600a6000838152602001908152602001600020805480602002602001604051908101604052809291908181526020016000905b82821015611b3c578382906000526020600020016040518060400160405290816000820160009054906101000a900473ffffffffffffffffffffffffffffffffffffffff1673ffffffffffffffffffffffffffffffffffffffff1673ffffffffffffffffffffffffffffffffffffffff1681526020016000820160149054906101000a90046bffffffffffffffffffffffff166bffffffffffffffffffffffff166bffffffffffffffffffffffff168152505081526020019060010190611a7a565b505050509050919050565b7f3f3483d0995db4c081e0101ef6753bef457833c20605cd871de61dcb48085a9a828234604051611b7a93929190613537565b60405180910390a1600f543411611b9057600080fd5b60006064600e5434611ba29190613160565b611bac91906131e9565b9050611bba82600e54612465565b60008273ffffffffffffffffffffffffffffffffffffffff168234611bdf919061356e565b604051611beb90613323565b60006040518083038185875af1925050503d8060008114611c28576040519150601f19603f3d011682016040523d82523d6000602084013e611c2d565b606091505b5050905080611c3b57600080fd5b50505050565b600c8181548110611c5157600080fd5b906000526020600020016000915054906101000a900473ffffffffffffffffffffffffffffffffffffffff1681565b60125481565b611c8e6120ce565b73ffffffffffffffffffffffffffffffffffffffff16611cac6114b8565b73ffffffffffffffffffffffffffffffffffffffff1614611d02576040517f08c379a0000000000000000000000000000000000000000000000000000000008152600401611cf990613266565b60405180910390fd5b80601360006101000a81548160ff02191690831515021790555050565b6000600760008473ffffffffffffffffffffffffffffffffffffffff1673ffffffffffffffffffffffffffffffffffffffff16815260200190815260200160002060008373ffffffffffffffffffffffffffffffffffffffff1673ffffffffffffffffffffffffffffffffffffffff16815260200190815260200160002060009054906101000a900460ff16905092915050565b611dbb6120ce565b73ffffffffffffffffffffffffffffffffffffffff16611dd96114b8565b73ffffffffffffffffffffffffffffffffffffffff1614611e2f576040517f08c379a0000000000000000000000000000000000000000000000000000000008152600401611e2690613266565b60405180910390fd5b600073ffffffffffffffffffffffffffffffffffffffff168173ffffffffffffffffffffffffffffffffffffffff161415611e9f576040517f08c379a0000000000000000000000000000000000000000000000000000000008152600401611e9690613614565b60405180910390fd5b611ea8816120d6565b50565b600e5481565b600081611ebc611f18565b11158015611ecb575060005482105b8015611f09575060007c0100000000000000000000000000000000000000000000000000000000600460008581526020019081526020016000205416145b9050919050565b600033905090565b600090565b60008082905080611f2c611f18565b11611fb457600054811015611fb35760006004600083815260200190815260200160002054905060007c010000000000000000000000000000000000000000000000000000000082161415611fb1575b6000811415611fa7576004600083600190039350838152602001908152602001600020549050611f7c565b8092505050611fe6565b505b5b6040517fdf2d9b4200000000000000000000000000000000000000000000000000000000815260040160405180910390fd5b919050565b6000806000600690508360005280602052604060002092508254915050915091565b600073ffffffffffffffffffffffffffffffffffffffff8316925073ffffffffffffffffffffffffffffffffffffffff821691508382148383141790509392505050565b50505050565b60008060e883901c905060e861206e8686846124f7565b62ffffff16901b9150509392505050565b600073ffffffffffffffffffffffffffffffffffffffff83169250814260a01b178317905092915050565b50505050565b6120ca828260405180602001604052806000815250612500565b5050565b600033905090565b6000600860009054906101000a900473ffffffffffffffffffffffffffffffffffffffff16905081600860006101000a81548173ffffffffffffffffffffffffffffffffffffffff021916908373ffffffffffffffffffffffffffffffffffffffff1602179055508173ffffffffffffffffffffffffffffffffffffffff168173ffffffffffffffffffffffffffffffffffffffff167f8be0079c531659141344cd1fd0a4f28419497f9722a3daafe3b4186f6b6457e060405160405180910390a35050565b60008373ffffffffffffffffffffffffffffffffffffffff1663150b7a026121c2611f10565b8786866040518563ffffffff1660e01b81526004016121e49493929190613689565b6020604051808303816000875af192505050801561222057506040513d601f19601f8201168201806040525081019061221d91906136ea565b60015b61229a573d8060008114612250576040519150601f19603f3d011682016040523d82523d6000602084013e612255565b606091505b50600081511415612292576040517fd1a57ed600000000000000000000000000000000000000000000000000000000815260040160405180910390fd5b805181602001fd5b63150b7a0260e01b7bffffffffffffffffffffffffffffffffffffffffffffffffffffffff1916817bffffffffffffffffffffffffffffffffffffffffffffffffffffffff191614915050949350505050565b606060405180602001604052806000815250905090565b6060600082141561234c576040518060400160405280600181526020017f30000000000000000000000000000000000000000000000000000000000000008152509050612460565b600082905060005b6000821461237e57808061236790613117565b915050600a8261237791906131e9565b9150612354565b60008167ffffffffffffffff81111561239a57612399612c9f565b5b6040519080825280601f01601f1916602001820160405280156123cc5781602001600182028036833780820191505090505b5090505b60008514612459576001826123e5919061356e565b9150600a856123f49190613717565b603061240091906130c1565b60f81b81838151811061241657612415613063565b5b60200101907effffffffffffffffffffffffffffffffffffffffffffffffffffffffffffff1916908160001a905350600a8561245291906131e9565b94506123d0565b8093505050505b919050565b60008290508073ffffffffffffffffffffffffffffffffffffffff166323b872dd8461248f6114b8565b856040518463ffffffff1660e01b81526004016124ae93929190613537565b6020604051808303816000875af11580156124cd573d6000803e3d6000fd5b505050506040513d601f19601f820116820180604052508101906124f1919061375d565b50505050565b60009392505050565b61250a838361259d565b60008373ffffffffffffffffffffffffffffffffffffffff163b1461259857600080549050600083820390505b61254a600086838060010194508661219c565b612580576040517fd1a57ed600000000000000000000000000000000000000000000000000000000815260040160405180910390fd5b81811061253757816000541461259557600080fd5b50505b505050565b600080549050600073ffffffffffffffffffffffffffffffffffffffff168373ffffffffffffffffffffffffffffffffffffffff16141561260a576040517f2e07630000000000000000000000000000000000000000000000000000000000815260040160405180910390fd5b6000821415612645576040517fb562e8dd00000000000000000000000000000000000000000000000000000000815260040160405180910390fd5b6126526000848385612051565b600160406001901b178202600560008573ffffffffffffffffffffffffffffffffffffffff1673ffffffffffffffffffffffffffffffffffffffff168152602001908152602001600020600082825401925050819055506126c9836126ba6000866000612057565b6126c385612771565b1761207f565b60046000838152602001908152602001600020819055506000819050600083830190505b818060010192508573ffffffffffffffffffffffffffffffffffffffff16600073ffffffffffffffffffffffffffffffffffffffff167fddf252ad1be2c89b69c2b068fc378daa952ba7f163c4a11628f55a4df523b3ef60405160405180910390a48082106126ed5780600081905550505061276c60008483856120aa565b505050565b60006001821460e11b9050919050565b6000604051905090565b600080fd5b600080fd5b60007fffffffff0000000000000000000000000000000000000000000000000000000082169050919050565b6127ca81612795565b81146127d557600080fd5b50565b6000813590506127e7816127c1565b92915050565b6000602082840312156128035761280261278b565b5b6000612811848285016127d8565b91505092915050565b60008115159050919050565b61282f8161281a565b82525050565b600060208201905061284a6000830184612826565b92915050565b600081519050919050565b600082825260208201905092915050565b60005b8381101561288a57808201518184015260208101905061286f565b83811115612899576000848401525b50505050565b6000601f19601f8301169050919050565b60006128bb82612850565b6128c5818561285b565b93506128d581856020860161286c565b6128de8161289f565b840191505092915050565b6000602082019050818103600083015261290381846128b0565b905092915050565b6000819050919050565b61291e8161290b565b811461292957600080fd5b50565b60008135905061293b81612915565b92915050565b6000602082840312156129575761295661278b565b5b60006129658482850161292c565b91505092915050565b600073ffffffffffffffffffffffffffffffffffffffff82169050919050565b60006129998261296e565b9050919050565b6129a98161298e565b82525050565b60006020820190506129c460008301846129a0565b92915050565b6129d38161298e565b81146129de57600080fd5b50565b6000813590506129f0816129ca565b92915050565b60008060408385031215612a0d57612a0c61278b565b5b6000612a1b858286016129e1565b9250506020612a2c8582860161292c565b9150509250929050565b612a3f8161290b565b82525050565b6000602082019050612a5a6000830184612a36565b92915050565b600080600060608486031215612a7957612a7861278b565b5b6000612a87868287016129e1565b9350506020612a98868287016129e1565b9250506040612aa98682870161292c565b9150509250925092565b60008060408385031215612aca57612ac961278b565b5b6000612ad88582860161292c565b9250506020612ae98582860161292c565b9150509250929050565b6000604082019050612b0860008301856129a0565b612b156020830184612a36565b9392505050565b600060208284031215612b3257612b3161278b565b5b6000612b40848285016129e1565b91505092915050565b600081519050919050565b600082825260208201905092915050565b6000819050602082019050919050565b612b7e8161298e565b82525050565b6000612b908383612b75565b60208301905092915050565b6000602082019050919050565b6000612bb482612b49565b612bbe8185612b54565b9350612bc983612b65565b8060005b83811015612bfa578151612be18882612b84565b9750612bec83612b9c565b925050600181019050612bcd565b5085935050505092915050565b60006020820190508181036000830152612c218184612ba9565b905092915050565b612c328161281a565b8114612c3d57600080fd5b50565b600081359050612c4f81612c29565b92915050565b60008060408385031215612c6c57612c6b61278b565b5b6000612c7a858286016129e1565b9250506020612c8b85828601612c40565b9150509250929050565b600080fd5b600080fd5b7f4e487b7100000000000000000000000000000000000000000000000000000000600052604160045260246000fd5b612cd78261289f565b810181811067ffffffffffffffff82111715612cf657612cf5612c9f565b5b80604052505050565b6000612d09612781565b9050612d158282612cce565b919050565b600067ffffffffffffffff821115612d3557612d34612c9f565b5b612d3e8261289f565b9050602081019050919050565b82818337600083830152505050565b6000612d6d612d6884612d1a565b612cff565b905082815260208101848484011115612d8957612d88612c9a565b5b612d94848285612d4b565b509392505050565b600082601f830112612db157612db0612c95565b5b8135612dc1848260208601612d5a565b91505092915050565b60008060008060808587031215612de457612de361278b565b5b6000612df2878288016129e1565b9450506020612e03878288016129e1565b9350506040612e148782880161292c565b925050606085013567ffffffffffffffff811115612e3557612e34612790565b5b612e4187828801612d9c565b91505092959194509250565b600081519050919050565b600082825260208201905092915050565b6000819050602082019050919050565b6000612e848261296e565b9050919050565b612e9481612e79565b82525050565b60006bffffffffffffffffffffffff82169050919050565b612ebb81612e9a565b82525050565b604082016000820151612ed76000850182612e8b565b506020820151612eea6020850182612eb2565b50505050565b6000612efc8383612ec1565b60408301905092915050565b6000602082019050919050565b6000612f2082612e4d565b612f2a8185612e58565b9350612f3583612e69565b8060005b83811015612f66578151612f4d8882612ef0565b9750612f5883612f08565b925050600181019050612f39565b5085935050505092915050565b60006020820190508181036000830152612f8d8184612f15565b905092915050565b60008060408385031215612fac57612fab61278b565b5b6000612fba858286016129e1565b9250506020612fcb858286016129e1565b9150509250929050565b600060208284031215612feb57612fea61278b565b5b6000612ff984828501612c40565b91505092915050565b7f4e487b7100000000000000000000000000000000000000000000000000000000600052602260045260246000fd5b6000600282049050600182168061304957607f821691505b6020821081141561305d5761305c613002565b5b50919050565b7f4e487b7100000000000000000000000000000000000000000000000000000000600052603260045260246000fd5b7f4e487b7100000000000000000000000000000000000000000000000000000000600052601160045260246000fd5b60006130cc8261290b565b91506130d78361290b565b9250827fffffffffffffffffffffffffffffffffffffffffffffffffffffffffffffffff0382111561310c5761310b613092565b5b828201905092915050565b60006131228261290b565b91507fffffffffffffffffffffffffffffffffffffffffffffffffffffffffffffffff82141561315557613154613092565b5b600182019050919050565b600061316b8261290b565b91506131768361290b565b9250817fffffffffffffffffffffffffffffffffffffffffffffffffffffffffffffffff04831182151516156131af576131ae613092565b5b828202905092915050565b7f4e487b7100000000000000000000000000000000000000000000000000000000600052601260045260246000fd5b60006131f48261290b565b91506131ff8361290b565b92508261320f5761320e6131ba565b5b828204905092915050565b7f4f776e61626c653a2063616c6c6572206973206e6f7420746865206f776e6572600082015250565b600061325060208361285b565b915061325b8261321a565b602082019050919050565b6000602082019050818103600083015261327f81613243565b9050919050565b7f5265656e7472616e637947756172643a207265656e7472616e742063616c6c00600082015250565b60006132bc601f8361285b565b91506132c782613286565b602082019050919050565b600060208201905081810360008301526132eb816132af565b9050919050565b600081905092915050565b50565b600061330d6000836132f2565b9150613318826132fd565b600082019050919050565b600061332e82613300565b9150819050919050565b7f5472616e73666572206661696c65642e00000000000000000000000000000000600082015250565b600061336e60108361285b565b915061337982613338565b602082019050919050565b6000602082019050818103600083015261339d81613361565b9050919050565b7f4552433732314d657461646174613a2055524920717565727920666f72206e6f60008201527f6e6578697374656e7420746f6b656e0000000000000000000000000000000000602082015250565b6000613400602f8361285b565b915061340b826133a4565b604082019050919050565b6000602082019050818103600083015261342f816133f3565b9050919050565b600081905092915050565b60008190508160005260206000209050919050565b6000815461346381613031565b61346d8186613436565b945060018216600081146134885760018114613499576134cc565b60ff198316865281860193506134cc565b6134a285613441565b60005b838110156134c4578154818901526001820191506020810190506134a5565b838801955050505b50505092915050565b60006134e082612850565b6134ea8185613436565b93506134fa81856020860161286c565b80840191505092915050565b60006135128286613456565b915061351e82856134d5565b915061352a8284613456565b9150819050949350505050565b600060608201905061354c60008301866129a0565b61355960208301856129a0565b6135666040830184612a36565b949350505050565b60006135798261290b565b91506135848361290b565b92508282101561359757613596613092565b5b828203905092915050565b7f4f776e61626c653a206e6577206f776e657220697320746865207a65726f206160008201527f6464726573730000000000000000000000000000000000000000000000000000602082015250565b60006135fe60268361285b565b9150613609826135a2565b604082019050919050565b6000602082019050818103600083015261362d816135f1565b9050919050565b600081519050919050565b600082825260208201905092915050565b600061365b82613634565b613665818561363f565b935061367581856020860161286c565b61367e8161289f565b840191505092915050565b600060808201905061369e60008301876129a0565b6136ab60208301866129a0565b6136b86040830185612a36565b81810360608301526136ca8184613650565b905095945050505050565b6000815190506136e4816127c1565b92915050565b600060208284031215613700576136ff61278b565b5b600061370e848285016136d5565b91505092915050565b60006137228261290b565b915061372d8361290b565b92508261373d5761373c6131ba565b5b828206905092915050565b60008151905061375781612c29565b92915050565b6000602082840312156137735761377261278b565b5b600061378184828501613748565b9150509291505056fea2646970667358221220ca5f7aa9c8b4b21dd6974e5c85a51f9873112a765467b4ee80f9d2dec6b2557764736f6c634300080c0033",
  "linkReferences": {},
  "deployedLinkReferences": {}
}